:100000007A0075B10075B20075A40075A5007591F0
:100010000075920075840075850011DC20A00D30FC
:10002000A0FD1ABAFF16114C7A0F80102081ED3016
:1000300081FD0ABA1006114C7A008000EAF413928E
:10004000861392A71392851392A480D07864B297F6
:100050001155D8FA2279647A0ADAFED9FA22E52013
:100060007003F4F52054B8A2D0E52033F52075F0E4
:100070000A84E5F022F4B33392A43392853392A735
:100080003392863392963392843392A53392873398
:1000900092A6740075F00011AC22758901F58A856D
:1000A000F08CD28C308DFDC28CC28D22119ADFFC77
:1000B000227E0274AAD37F14117574AAF4C37F142C
:1000C0001175DEEF7400C31175227E0274FFD37FB9
:1000D000141175E4C37F141175DEF1227E037400E0
:1000E000C3AF0611757480C3AF06117574C0C3AF7A
:1000F00006117574E0C3AF06117574E4C3AF061141
:100100007574E4D3AF06117574E5D3AF0611757439
:10011000E7D3AF06117574F7D3AF06117574FFD32B
:10012000AF0611757400C3AF06F4B311757480C3C4
:10013000AF06F4B3117574C0C3AF06F4B311757490
:10014000E0C3AF06F4B3117574E4C3AF06F4B311A2
:100150007574E4D3AF06F4B3117574E5D3AF06F448
:10016000B3117574E7D3AF06F4B3117574F7D3AF59
:1001700006F4B3117574FFD3AF06F4B311757E089E
:100180007D0574AAD3AF061175745DC3AF061175F2
:10019000DDF07E087D0774F7D3AF0611757408C3D0
:1001A000AF061175DDF074F7D3AF0611757E067DCD
:1001B000077488D3AF0611757449C3AF06117574FF
:1001C0002AC3AF061175741CC3AF061175DDE27446
:1001D00088D3AF0611757E067D037480C3AF061108
:1001E0007574D0C3AF06117574FAC3AF0611757478
:1001F000FFC3AF06117574FFD3AF0611757480C3CA
:10020000F4B3AF06117574D0C3F4B3AF06117574AF
:10021000FAC3F4B3AF06117574FFC3F4B3AF06119C
:0D0220007574FFD3F4B3AF061175DDAE2287
:00000001FF
